{
    "_format": "hh-sol-artifact-1",
    "contractName": "TodoApp",
    "sourceName": "contracts/TodoApp.sol",
    "abi": [
        {
            "inputs": [],
            "stateMutability": "nonpayable",
            "type": "constructor"
        },
        {
            "anonymous": false,
            "inputs": [
                {
                    "indexed": true,
                    "internalType": "address",
                    "name": "previousOwner",
                    "type": "address"
                },
                {
                    "indexed": true,
                    "internalType": "address",
                    "name": "newOwner",
                    "type": "address"
                }
            ],
            "name": "OwnershipTransferred",
            "type": "event"
        },
        {
            "inputs": [],
            "name": "activateAddFeature",
            "outputs": [],
            "stateMutability": "nonpayable",
            "type": "function"
        },
        {
            "inputs": [],
            "name": "activateDeleteFeature",
            "outputs": [],
            "stateMutability": "nonpayable",
            "type": "function"
        },
        {
            "inputs": [
                {
                    "internalType": "string",
                    "name": "_item",
                    "type": "string"
                }
            ],
            "name": "addItem",
            "outputs": [],
            "stateMutability": "nonpayable",
            "type": "function"
        },
        {
            "inputs": [],
            "name": "deleteAllItem",
            "outputs": [],
            "stateMutability": "nonpayable",
            "type": "function"
        },
        {
            "inputs": [],
            "name": "getItemCount",
            "outputs": [
                {
                    "internalType": "uint256",
                    "name": "",
                    "type": "uint256"
                }
            ],
            "stateMutability": "view",
            "type": "function"
        },
        {
            "inputs": [],
            "name": "getList",
            "outputs": [
                {
                    "internalType": "string[]",
                    "name": "",
                    "type": "string[]"
                }
            ],
            "stateMutability": "view",
            "type": "function"
        },
        {
            "inputs": [],
            "name": "isAddable",
            "outputs": [
                {
                    "internalType": "bool",
                    "name": "",
                    "type": "bool"
                }
            ],
            "stateMutability": "view",
            "type": "function"
        },
        {
            "inputs": [],
            "name": "isDeletable",
            "outputs": [
                {
                    "internalType": "bool",
                    "name": "",
                    "type": "bool"
                }
            ],
            "stateMutability": "view",
            "type": "function"
        },
        {
            "inputs": [
                {
                    "internalType": "uint256",
                    "name": "",
                    "type": "uint256"
                }
            ],
            "name": "items",
            "outputs": [
                {
                    "internalType": "string",
                    "name": "",
                    "type": "string"
                }
            ],
            "stateMutability": "view",
            "type": "function"
        },
        {
            "inputs": [],
            "name": "owner",
            "outputs": [
                {
                    "internalType": "address",
                    "name": "",
                    "type": "address"
                }
            ],
            "stateMutability": "view",
            "type": "function"
        },
        {
            "inputs": [
                {
                    "internalType": "uint256",
                    "name": "_index",
                    "type": "uint256"
                }
            ],
            "name": "removeItem",
            "outputs": [],
            "stateMutability": "nonpayable",
            "type": "function"
        },
        {
            "inputs": [],
            "name": "renounceOwnership",
            "outputs": [],
            "stateMutability": "nonpayable",
            "type": "function"
        },
        {
            "inputs": [
                {
                    "internalType": "address",
                    "name": "newOwner",
                    "type": "address"
                }
            ],
            "name": "transferOwnership",
            "outputs": [],
            "stateMutability": "nonpayable",
            "type": "function"
        }
    ],
    "bytecode": "0x608060405234801561001057600080fd5b5061002d61002261006860201b60201c565b61007060201b60201c565b6000600260006101000a81548160ff0219169083151502179055506001600260016101000a81548160ff021916908315150217905550610134565b600033905090565b60008060009054906101000a900473ffffffffffffffffffffffffffffffffffffffff169050816000806101000a81548173ffffffffffffffffffffffffffffffffffffffff021916908373ffffffffffffffffffffffffffffffffffffffff1602179055508173ffffffffffffffffffffffffffffffffffffffff168173ffffffffffffffffffffffffffffffffffffffff167f8be0079c531659141344cd1fd0a4f28419497f9722a3daafe3b4186f6b6457e060405160405180910390a35050565b611772806101436000396000f3fe608060405234801561001057600080fd5b50600436106100cf5760003560e01c8063715018a61161008c5780638da5cb5b116100665780638da5cb5b1461018e578063942b765a146101ac578063bfb231d2146101ca578063f2fde38b146101fa576100cf565b8063715018a61461015c5780637749cf23146101665780638c54a42f14610184576100cf565b806311352406146100d45780631c023cbd146100de57806327e9f294146100fc57806357726d5e1461011857806362a89fdb146101365780637132917114610140575b600080fd5b6100dc610216565b005b6100e661031f565b6040516100f39190611105565b60405180910390f35b61011660048036038101906101119190610e41565b610332565b005b6101206103c7565b60405161012d9190611105565b60405180910390f35b61013e6103da565b005b61015a60048036038101906101559190610e82565b6104c9565b005b61016461069c565b005b61016e610724565b60405161017b9190611222565b60405180910390f35b61018c610731565b005b610196610820565b6040516101a391906110c8565b60405180910390f35b6101b4610849565b6040516101c191906110e3565b60405180910390f35b6101e460048036038101906101df9190610e82565b610922565b6040516101f19190611120565b60405180910390f35b610214600480360381019061020f9190610e18565b6109ce565b005b61021e610ac6565b73ffffffffffffffffffffffffffffffffffffffff1661023c610820565b73ffffffffffffffffffffffffffffffffffffffff1614610292576040517f08c379a000000000000000000000000000000000000000000000000000000000815260040161028990611182565b60405180910390fd5b600067ffffffffffffffff8111156102d3577f4e487b7100000000000000000000000000000000000000000000000000000000600052604160045260246000fd5b60405190808252806020026020018201604052801561030657816020015b60608152602001906001900390816102f15790505b506001908051906020019061031c929190610b92565b50565b600260009054906101000a900460ff1681565b60011515600260019054906101000a900460ff16151514610388576040517f08c379a000000000000000000000000000000000000000000000000000000000815260040161037f906111c2565b60405180910390fd5b6001819080600181540180825580915050600190039060005260206000200160009091909190915090805190602001906103c3929190610bf2565b5050565b600260019054906101000a900460ff1681565b6103e2610ac6565b73ffffffffffffffffffffffffffffffffffffffff16610400610820565b73ffffffffffffffffffffffffffffffffffffffff1614610456576040517f08c379a000000000000000000000000000000000000000000000000000000000815260040161044d90611182565b60405180910390fd5b60011515600260019054906101000a900460ff161515146104ac576040517f08c379a00000000000000000000000000000000000000000000000000000000081526004016104a390611162565b60405180910390fd5b6001600260016101000a81548160ff021916908315150217905550565b60011515600260009054906101000a900460ff1615151461051f576040517f08c379a0000000000000000000000000000000000000000000000000000000008152600401610516906111e2565b60405180910390fd5b6001805490508110610566576040517f08c379a000000000000000000000000000000000000000000000000000000000815260040161055d906111a2565b60405180910390fd5b60008190505b6001808054905061057d919061134f565b811015610642576001808261059291906112f9565b815481106105c9577f4e487b7100000000000000000000000000000000000000000000000000000000600052603260045260246000fd5b906000526020600020016001828154811061060d577f4e487b7100000000000000000000000000000000000000000000000000000000600052603260045260246000fd5b906000526020600020019080546106239061140d565b61062e929190610c78565b50808061063a90611470565b91505061056c565b50600180548061067b577f4e487b7100000000000000000000000000000000000000000000000000000000600052603160045260246000fd5b6001900381819060005260206000200160006106979190610d05565b905550565b6106a4610ac6565b73ffffffffffffffffffffffffffffffffffffffff166106c2610820565b73ffffffffffffffffffffffffffffffffffffffff1614610718576040517f08c379a000000000000000000000000000000000000000000000000000000000815260040161070f90611182565b60405180910390fd5b6107226000610ace565b565b6000600180549050905090565b610739610ac6565b73ffffffffffffffffffffffffffffffffffffffff16610757610820565b73ffffffffffffffffffffffffffffffffffffffff16146107ad576040517f08c379a00000000000000000000000000000000000000000000000000000000081526004016107a490611182565b60405180910390fd5b60001515600260009054906101000a900460ff16151514610803576040517f08c379a00000000000000000000000000000000000000000000000000000000081526004016107fa90611202565b60405180910390fd5b6001600260006101000a81548160ff021916908315150217905550565b60008060009054906101000a900473ffffffffffffffffffffffffffffffffffffffff16905090565b60606001805480602002602001604051908101604052809291908181526020016000905b8282101561091957838290600052602060002001805461088c9061140d565b80601f01602080910402602001604051908101604052809291908181526020018280546108b89061140d565b80156109055780601f106108da57610100808354040283529160200191610905565b820191906000526020600020905b8154815290600101906020018083116108e857829003601f168201915b50505050508152602001906001019061086d565b50505050905090565b6001818154811061093257600080fd5b90600052602060002001600091509050805461094d9061140d565b80601f01602080910402602001604051908101604052809291908181526020018280546109799061140d565b80156109c65780601f1061099b576101008083540402835291602001916109c6565b820191906000526020600020905b8154815290600101906020018083116109a957829003601f168201915b505050505081565b6109d6610ac6565b73ffffffffffffffffffffffffffffffffffffffff166109f4610820565b73ffffffffffffffffffffffffffffffffffffffff1614610a4a576040517f08c379a0000000000000000000000000000000000000000000000000000000008152600401610a4190611182565b60405180910390fd5b600073ffffffffffffffffffffffffffffffffffffffff168173ffffffffffffffffffffffffffffffffffffffff161415610aba576040517f08c379a0000000000000000000000000000000000000000000000000000000008152600401610ab190611142565b60405180910390fd5b610ac381610ace565b50565b600033905090565b60008060009054906101000a900473ffffffffffffffffffffffffffffffffffffffff169050816000806101000a81548173ffffffffffffffffffffffffffffffffffffffff021916908373ffffffffffffffffffffffffffffffffffffffff1602179055508173ffffffffffffffffffffffffffffffffffffffff168173ffffffffffffffffffffffffffffffffffffffff167f8be0079c531659141344cd1fd0a4f28419497f9722a3daafe3b4186f6b6457e060405160405180910390a35050565b828054828255906000526020600020908101928215610be1579160200282015b82811115610be0578251829080519060200190610bd0929190610bf2565b5091602001919060010190610bb2565b5b509050610bee9190610d45565b5090565b828054610bfe9061140d565b90600052602060002090601f016020900481019282610c205760008555610c67565b82601f10610c3957805160ff1916838001178555610c67565b82800160010185558215610c67579182015b82811115610c66578251825591602001919060010190610c4b565b5b509050610c749190610d69565b5090565b828054610c849061140d565b90600052602060002090601f016020900481019282610ca65760008555610cf4565b82601f10610cb75780548555610cf4565b82800160010185558215610cf457600052602060002091601f016020900482015b82811115610cf3578254825591600101919060010190610cd8565b5b509050610d019190610d69565b5090565b508054610d119061140d565b6000825580601f10610d235750610d42565b601f016020900490600052602060002090810190610d419190610d69565b5b50565b5b80821115610d655760008181610d5c9190610d05565b50600101610d46565b5090565b5b80821115610d82576000816000905550600101610d6a565b5090565b6000610d99610d9484611262565b61123d565b905082815260208101848484011115610db157600080fd5b610dbc8482856113cb565b509392505050565b600081359050610dd38161170e565b92915050565b600082601f830112610dea57600080fd5b8135610dfa848260208601610d86565b91505092915050565b600081359050610e1281611725565b92915050565b600060208284031215610e2a57600080fd5b6000610e3884828501610dc4565b91505092915050565b600060208284031215610e5357600080fd5b600082013567ffffffffffffffff811115610e6d57600080fd5b610e7984828501610dd9565b91505092915050565b600060208284031215610e9457600080fd5b6000610ea284828501610e03565b91505092915050565b6000610eb78383610f52565b905092915050565b610ec881611383565b82525050565b6000610ed9826112a3565b610ee381856112c6565b935083602082028501610ef585611293565b8060005b85811015610f315784840389528151610f128582610eab565b9450610f1d836112b9565b925060208a01995050600181019050610ef9565b50829750879550505050505092915050565b610f4c81611395565b82525050565b6000610f5d826112ae565b610f6781856112d7565b9350610f778185602086016113da565b610f8081611546565b840191505092915050565b6000610f96826112ae565b610fa081856112e8565b9350610fb08185602086016113da565b610fb981611546565b840191505092915050565b6000610fd16026836112e8565b9150610fdc82611557565b604082019050919050565b6000610ff46020836112e8565b9150610fff826115a6565b602082019050919050565b60006110176020836112e8565b9150611022826115cf565b602082019050919050565b600061103a6012836112e8565b9150611045826115f8565b602082019050919050565b600061105d6026836112e8565b915061106882611621565b604082019050919050565b60006110806029836112e8565b915061108b82611670565b604082019050919050565b60006110a36023836112e8565b91506110ae826116bf565b604082019050919050565b6110c2816113c1565b82525050565b60006020820190506110dd6000830184610ebf565b92915050565b600060208201905081810360008301526110fd8184610ece565b905092915050565b600060208201905061111a6000830184610f43565b92915050565b6000602082019050818103600083015261113a8184610f8b565b905092915050565b6000602082019050818103600083015261115b81610fc4565b9050919050565b6000602082019050818103600083015261117b81610fe7565b9050919050565b6000602082019050818103600083015261119b8161100a565b9050919050565b600060208201905081810360008301526111bb8161102d565b9050919050565b600060208201905081810360008301526111db81611050565b9050919050565b600060208201905081810360008301526111fb81611073565b9050919050565b6000602082019050818103600083015261121b81611096565b9050919050565b600060208201905061123760008301846110b9565b92915050565b6000611247611258565b9050611253828261143f565b919050565b6000604051905090565b600067ffffffffffffffff82111561127d5761127c611517565b5b61128682611546565b9050602081019050919050565b6000819050602082019050919050565b600081519050919050565b600081519050919050565b6000602082019050919050565b600082825260208201905092915050565b600082825260208201905092915050565b600082825260208201905092915050565b6000611304826113c1565b915061130f836113c1565b9250827fffffffffffffffffffffffffffffffffffffffffffffffffffffffffffffffff03821115611344576113436114b9565b5b828201905092915050565b600061135a826113c1565b9150611365836113c1565b925082821015611378576113776114b9565b5b828203905092915050565b600061138e826113a1565b9050919050565b60008115159050919050565b600073ffffffffffffffffffffffffffffffffffffffff82169050919050565b6000819050919050565b82818337600083830152505050565b60005b838110156113f85780820151818401526020810190506113dd565b83811115611407576000848401525b50505050565b6000600282049050600182168061142557607f821691505b60208210811415611439576114386114e8565b5b50919050565b61144882611546565b810181811067ffffffffffffffff8211171561146757611466611517565b5b80604052505050565b600061147b826113c1565b91507fffffffffffffffffffffffffffffffffffffffffffffffffffffffffffffffff8214156114ae576114ad6114b9565b5b600182019050919050565b7f4e487b7100000000000000000000000000000000000000000000000000000000600052601160045260246000fd5b7f4e487b7100000000000000000000000000000000000000000000000000000000600052602260045260246000fd5b7f4e487b7100000000000000000000000000000000000000000000000000000000600052604160045260246000fd5b6000601f19601f8301169050919050565b7f4f776e61626c653a206e6577206f776e657220697320746865207a65726f206160008201527f6464726573730000000000000000000000000000000000000000000000000000602082015250565b7f4164642066756e6374696f6e616c69747920616c726561647920616374697665600082015250565b7f4f776e61626c653a2063616c6c6572206973206e6f7420746865206f776e6572600082015250565b7f696e646578206f7574206f6620626f756e640000000000000000000000000000600082015250565b7f4164642066756e6374696f6e616c69747920646561637469766174656420627960008201527f2061646d696e0000000000000000000000000000000000000000000000000000602082015250565b7f44656c6574652066756e6374696f6e616c69747920646561637469766174656460008201527f2062792061646d696e0000000000000000000000000000000000000000000000602082015250565b7f44656c6574652066756e6374696f6e616c69747920616c72656164792061637460008201527f6976650000000000000000000000000000000000000000000000000000000000602082015250565b61171781611383565b811461172257600080fd5b50565b61172e816113c1565b811461173957600080fd5b5056fea2646970667358221220863cd0d66fd058dfd148c8309c075aef8f6b2653d19d48c9653e300674b5227764736f6c63430008040033",
    "linkReferences": {},
    "deployedLinkReferences": {}
}